:020000040000FA
:10000000A304020A6400A304000BA304800BA3044E
:06001000840BA304880B21
:1001DE0068000402A4023F0EE2010008FF08FF08B7
:1001EE00FF08FF08FF08FF08FF08FF08FF08FF08C9
:1001FE00FF08C00C0200A40406053E0C0600080C05
:10020E0006002604A6048605460574007500150230
:10021E002F0014022E000F02800F2800800C880081
:10022E0043071B0B1E0C8E0003071E0B1F0B210B0F
:10023E00400B400BA3040709A304010C2E006F0012
:10024E000E02A404F4010306B5020F02F501150215
:10025E002F0014022E000F02800F2800800C880041
:10026E0043073B0B1E0C8E0003073E0B3F0B210B6F
:10027E00400BA4047600770017022F0016022E0002
:10028E000F02800F2800800C88004307500B1E0CB5
:10029E008E000307530B540B560B750B750BA304F3
:1002AE000909A304010C2E006F000E02A404F6012E
:1002BE000306B7020F02F70117022F0016022E00D7
:1002CE000F02800F2800800C88004307700B1E0C55
:1002DE008E000307730B740B560B750B130CA405D2
:1002EE003000000C3100F1077E0BA3057B0AA3053D
:1002FE007D0AA404460446050008A404A605A60427
:0A030E000008A40486048605000818
:1004F600B40AB40A010C2E006F0090022D00450CC0
:1005060028007A0C29000B0C2A00000C2B00900AFC
:100516004B032B032A0329032803ED028B0A0E0241
:100526004801A40430000F024901310010069C0A5C
:100536009F0AA4044605A10AA4044604A3040909C3
:10054600A305FF0C2E00FF0C2F000E02A405F001E0
:100556000306B1020F02F101F107B20AB30A7D0ADE
:10056600B40AA4047800790019022F0018022E009C
:100576000F02800F2800800C88004307C40A0A0C6B
:100586008E000307C70AC80ACA0AE90AE90AA304C9
:100596000509A305010C2E006F000E02A404F80144
:1005A6000306B9020F02F90119022F0018022E00E4
:1005B6000F02800F2800800C88004307E40A0A0C0B
:1005C6008E000307E70AE80ACA0AE90AA4044604F1
:1005D6007A007B001B022F001A022E000F02800FEA
:1005E6002800800C88004307FA0A140C8E000307C3
:1005F600FD0AFE0A000B1F0B1F0BA3040909A30526
:10060600010C2E006F000E02A404FA010306BB02C1
:100616000F02FB011B022F001A022E000F02800F91
:100626002800800C880043071A0B140C8E00030761
:100636001D0B1E0B000B1F0BA4057200730013028B
:100646002F0012022E000F02800F2800800C880057
:1006560043072F0B0B0C8E000307320B330B350BA6
:100666008F0B8F0B070CA4053400000C3500F50723
:100676003D0B3E0B400B740B740B94022F001202C1
:100686002E00010CCE012400A304F009A3052E00C0
:100696004E0B03042E03EF024C0B0E02010E2E002E
:1006A6006F000E02A40432000F02330012065C0B28
:1006B6005F0BA4044605610BA4044604A3040909C0
:1006C600A305FF0C2E00FF0C2F000E02A405F4015B
:1006D6000306B5020F02F501F507720B730B400B0B
:1006E600740B010C2E006F000E02F2010306B3021A
:1006F6000F02F30113022F0012022E000F02800FC9
:100706002800800C880043078A0B0B0C8E00030719
:100716008D0B8E0B350B8F0BA4047C007D001D0208
:100726002F001C022E000F02800F2800800C88006C
:1007360043079F0B030C8E000307A20BA30BA50B0D
:10074600C40BC40BA3040709A305010C2E006F00FC
:100756000E02A404FC010306BD020F02FD011D02E8
:100766002F001C022E000F02800F2800800C88002C
:100776004307BF0B030C8E000307C20BC30BA50B6D
:10078600C40BA40426057E007F001F022F001E0254
:100796002E000F02800F2800800C88004307D50B1F
:1007A600030C8E000307D80BD90BDB0BFA0BFA0BE5
:1007B600A3040709A305010C2E006F000E02A40472
:1007C600FE010306BF020F02FF011F022F001E02D9
:1007D6002E000F02800F2800800C88004307F50BBF
:1007E600030C8E000307F80BF90BDB0BFA0B3F0C1F
:0807F60006000300A304000A41
:020FFE00EA0FF8
:00000001FF
