:020000040000FA
:10000000A304020A6400A305000AA304000BA304CE
:06001000270BA3044E0BB8
:1001D80068000402A4023F0EE20100080108230897
:1001E800450867088908AB08CD08EF0811083308E7
:1001F800550877089908BB08A4044604A4051E02FC
:100208004306070B080B130B140CA4043100790CDC
:100218003000F0020D0BF1020D0B0000130BA404CB
:100228004605A4051E0243061A0B1B0B260B140CCD
:10023800A4043100790C3000F002200BF102200BED
:100248000000260B0008A404A605A4051E02430608
:100258002E0B2F0B3A0B140CA4043100790C300030
:10026800F002340BF102340B00003A0BA404A6048C
:10027800A4051E024306410B420B4D0B140CA404AB
:100288003100790C3000F002470BF102470B0000F7
:100298004D0B0008A4048604A4051E024306550B52
:1002A800560B610B140CA4043100790C3000F002D9
:1002B8005B0BF1025B0B0000610BA4048605A4052F
:1002C8001E024306680B690B740B140CA40431005E
:1002D800790C3000F0026E0BF1026E0B0000740B0B
:0202E80000080C
:100400000C0C2400A304ED09A305A40530000D0C79
:100410002400A304ED09A305A40531000E0C24005B
:10042000A304ED09A305A4053E00C00C0200A4042A
:1004300006053E0C0600080C06002604A6048605E8
:100440004605A4057400340A0D0CA4043300FB0C0B
:100450003200F202290AF302290A0000010C2F00DF
:100460000F02A405F401340A100294000307390AAC
:100470003A0A240A3B0A75001E0C95000307410A3C
:10048000420A440A530A530AA3040709A305010CAC
:100490002F000F02A405F5011E0C95000307510A59
:1004A000520A440A530A1E024306570A580A630AAC
:1004B0004E0CA4043300EA0C3200F2025D0AF3028F
:1004C0005D0A620A630AA40576001E0C9600030703
:1004D0006A0A6B0A6D0A7C0A7C0AA3040909A3054F
:1004E000010C2F000F02A405F6011E0C9600030755
:1004F0007A0A7B0A6D0A7C0A1E024306800A810A78
:100500008C0A4E0CA4043300EA0C3200F202860A74
:10051000F302860A8B0A8C0A130CA4053B00FB0726
:10052000920A930A950AC00AC00A9B022F00450C42
:100530002A007A0C2B000B0C2C00000C2D00A50AB5
:100540004D032D032C032B032A03EF02A00A0A02FA
:10055000010EA40532001206AE0AB10AA404460533
:10056000B30AA4044604A3040909A305FF0C2F0041
:100570000F02A405FB01FB07BE0ABF0A950AC00AC9
:100580001E024306C40AC50AD00A4E0CA404330056
:10059000EA0C3200F202CA0AF302CA0ACF0AD00AEF
:1005A000A40577000A0C97000307D70AD80ADA0ACD
:1005B000E90AE90AA3040509A305010C2F000F02AB
:1005C000A405F7010A0C97000307E70AE80ADA0A0C
:1005D000E90A1E024306ED0AEE0AF90A4E0CA404CB
:1005E0003300EA0C3200F202F30AF302F30AF80ACB
:1005F000F90AA4044604A4057800140C9800030723
:10060000020B030B050B140B140BA3040909A30520
:10061000010C2F000F02A405F801140C9800030729
:10062000120B130B050B140B1E024306180B190BB0
:10063000240B4E0CA4043300EA0C3200F2021E0B11
:10064000F3021E0B230B240BA4057C000B0C9C0057
:1006500003072B0B2C0B2E0B6A0B6A0B070C3D00B0
:10066000FD07330B340B360B5F0B5F0B9D022F0026
:100670001C022E00010CCE012400A304ED09A305E9
:100680002E00440B03042E03EF02420B0E02010E58
:10069000A405330013064D0B500BA4044605520B62
:1006A000A4044604A3040909A305FF0C2F000F02AC
:1006B000A405FD01FD075D0B5E0B360B5F0B010C06
:1006C0002F000F02FC010B0C9C000307680B690B49
:1006D0002E0B6A0B1E0243066E0B6F0B7A0B4E0C31
:1006E000A4043300EA0C3200F202740BF302740B20
:1006F000790B7A0BA4057900030C99000307810B91
:10070000820B840B930B930BA3040709A305010C25
:100710002F000F02A405F901030C99000307910BA8
:10072000920B840B930B1E024306970B980BA30BA3
:100730004E0CA4043300EA0C3200F2029D0BF302CB
:100740009D0BA20BA30BA4042605A4057A00030CA1
:100750009A000307AC0BAD0BAF0BBE0BBE0BA30493
:100760000709A305010C2F000F02A405FA01030CD1
:100770009A000307BC0BBD0BAF0BBE0B1E0243065A
:10078000C20BC30BCD0B4E0CA4043300EA0C320099
:10079000F202C80BF302C80BCD0B3F0C0600A405F8
:1007A00011024306D40BD50BFC0B1D0C0600D80B15
:1007B000A404A6052604030CA40434008A0C330008
:1007C000550C3200F202E20BF302E20BF402E20BF0
:1007D0000000A404A6042605030CA40434008A0C1B
:1007E0003300550C3200F202F30BF302F30BF40268
:0E07F000F30B0000D80BD80B0300A304000A83
:021FFE00EAFFF8
:00000001FF
